:100000000C942A000C943C000C943C000C943C0092
:100010000C943C000C943C000C943C000C943C0070
:100020000C943C000C943C000C9405010C943C0096
:100030000C943C000C943C000C943C000C943C0050
:100040000C943C000C943C000C943C000C943C0040
:100050000C943C0011241FBECFE5D8E0DEBFCDBF1D
:1000600010E0A0E6B0E001C01D92AC37B107E1F7A7
:100070000E94C5010C9496020C9400000F931F93EC
:10008000DF93CF9300D00F92CDB7DEB71B82E3E5AD
:10009000F0E08DE080831A82198281E08A830FC0AC
:1000A0008A81282F30E084E190E0B9010E944D025E
:1000B000009711F48A8189838A818F5F8A838A817C
:1000C000813170F30CE510E08981882F90E0A0E089
:1000D000B0E020E034E244EF50E0BC01CD010E94EA
:1000E0002E02DC01CB0120E030EA4FE050E0BC0101
:1000F000CD010E946002DA01C901F8018083898183
:10010000282F30E084E190E0B9010E944D02CB013C
:1001100090936300809362008091620090916300ED
:10012000909361008093600081E08B838B810F90BE
:100130000F900F90CF91DF911F910F910895DF9352
:10014000CF9300D000D000D0CDB7DEB79B838A8399
:100150006C835E834D8319828A819B810097D1F1E4
:100160008C81282F30E0C901880F991F820F931FBF
:10017000880F991FFC01EC59FF4F8A819B81918365
:1001800080838C81282F30E0C901880F991F820F4E
:10019000931F0196880F991FFC01EC59FF4F8D8129
:1001A0009E81918380838C81282F30E08D819E8178
:1001B000AC0141505040C901880F991F820F931F15
:1001C000880F991FFC01E859FF4F5183408381E05C
:1001D000898302C083E08983898126960FB6F894CB
:1001E000DEBF0FBECDBFCF91DF910895DF93CF93D8
:1001F0000F92CDB7DEB71982A9E5B0E0E9E5F0E0EE
:10020000808182608C937894FFCF1F920F920FB6FB
:100210000F9211242F933F934F935F936F937F938C
:100220008F939F93AF93BF93EF93FF93DF93CF93FE
:100230000F92CDB7DEB78091600090916100019779
:1002400090936100809360008091600090916100C4
:10025000009709F086C0198278C08981282F30E084
:10026000C901880F991F820F931F880F991FFC01E6
:10027000E859FF4F80819181009709F045C089813D
:10028000282F30E0C901880F991F820F931F880F14
:10029000991FFC01EC59FF4F808191810097A1F1DA
:1002A0008981282F30E0C901880F991F820F931F81
:1002B000880F991FFC01EC59FF4F0190F081E02D50
:1002C00009958981482F50E08981282F30E0C901A4
:1002D000880F991F820F931F0196880F991FFC01A9
:1002E000EC59FF4F808191819C0121503040CA011F
:1002F000880F991F840F951F880F991FFC01E859DB
:10030000FF4F318320831EC08981282F30E0C9012F
:10031000880F991F820F931F880F991FFC01E859BE
:10032000FF4F80819181AC0141505040C901880F3D
:10033000991F820F931F880F991FFC01E859FF4FE7
:100340005183408389818F5F89838981843008F458
:1003500084CF8091620090916300909361008093BC
:1003600060000F90CF91DF91FF91EF91BF91AF911E
:100370009F918F917F916F915F914F913F912F91BD
:100380000F900FBE0F901F901895DF93CF93CDB7AE
:10039000DEB7EAE3F0E08FEF80830E943E0082EF59
:1003A00091E060E04AE050E00E949F0081E092E02E
:1003B00061E04FE050E00E949F0080E192E062E047
:1003C00044E150E00E949F008FE192E063E049E148
:1003D00050E00E949F000E94F60080E090E0CF91E4
:1003E000DF910895DF93CF93CDB7DEB7ABE3B0E0F5
:1003F000EBE3F0E0908182E089278C93CF91DF914D
:100400000895DF93CF93CDB7DEB7ABE3B0E0EBE376
:10041000F0E0908184E089278C93CF91DF9108955B
:10042000DF93CF93CDB7DEB7ABE3B0E0EBE3F0E023
:10043000908188E089278C93CF91DF910895DF9395
:10044000CF93CDB7DEB7ABE3B0E0EBE3F0E0908164
:1004500080E189278C93CF91DF910895629FD0012D
:10046000739FF001829FE00DF11D649FE00DF11D6F
:10047000929FF00D839FF00D749FF00D659FF00D1E
:100480009927729FB00DE11DF91F639FB00DE11D0B
:10049000F91FBD01CF011124089597FB092E0726EE
:1004A0000AD077FD04D02ED006D000201AF4709523
:1004B00061957F4F0895F6F7909581959F4F089528
:1004C000A1E21A2EAA1BBB1BFD010DC0AA1FBB1F58
:1004D000EE1FFF1FA217B307E407F50720F0A21BCA
:1004E000B30BE40BF50B661F771F881F991F1A9437
:1004F00069F760957095809590959B01AC01BD0161
:10050000CF010895AA1BBB1B51E107C0AA1FBB1F47
:10051000A617B70710F0A61BB70B881F991F5A958F
:10052000A9F780959095BC01CD010895F894FFCF6F
:00000001FF
